:100000001EC037C09CC435C034C033C032C031C0FC
:1000100030C02FC02EC02DC083C469C4EEC3000001
:100020000000370000000000380001030000040059
:10003000020202020202010204081020FA05112441
:100040001FBECFE5D2E0DEBFCDBF20E0A0E6B0E02E
:1000500001C01D92A53AB207E1F710E0CFE1D0E070
:1000600003C02197FE01BAD7CE31D107D1F776D49C
:10007000BBC7C6CF9091A2009923A1F09091A40094
:10008000903240F59091A300E92FF0E0E05AFF4F45
:10009000808381E0890F8093A3008093A40081E096
:1000A00090E008952091A00090919F002F5F921BF7
:1000B0009F7081F09091A0009F5F9F7020919F00A2
:1000C0009217E1F3E92FF0E0E059FF4F808390931E
:1000D000A000E5CF90E080E0089591E09093A20029
:1000E000880F809360009093A3009093A4000895DC
:1000F0008091A400882339F02091A30082131CC0B2
:100100008FEF9FEF089590919E0080919D00891B35
:100110008F70B1F390919E0080919D009817E1F34C
:10012000E0919E00EF5FEF70E0939E00F0E0E05AF8
:10013000FF4F808190E00895E22FF0E0E05AFF4FFA
:10014000808190E02F5F2093A300089524EF30E09A
:10015000615071098109910908F40895F9013197F5
:10016000F1F7F6CF8EB935E08BE224E0932F9A9524
:10017000F1F78DB9B29BFECF922F9A95F1F78DB919
:10018000769BF4CF85E08A95F1F78FB19FEF9FB909
:10019000B89A0895FF920F931F93CF93DF93062F82
:1001A000142F21E02093A100FC01208120FD03C039
:1001B00023E02093A100C29AB29BFECF25E02A95AE
:1001C000F1F7C09824E02A95F1F7C298C09A779980
:1001D0000BC087E08093A10010E0812FDF91CF91C9
:1001E0001F910F91FF900895EC01FF24FA948091E4
:1001F000A100837019F1C29888818FB980EFB2DFB6
:10020000B8988EEFAFDF80FF0CC08091A100182F4F
:10021000117080FF02C086E0DDCF85E08093A100F1
:10022000DCCF8091A1008E7F8093A10001502196A8
:100230000111DDCF11110EC011E0CFCFB89880EFC2
:1002400091DF8883013021F4FFB88EEF8BDFEECF92
:100250001FB8FBCFC098C29AB29BFECF84E08A95AC
:10026000F1F7C09A85E08A95F1F77599E5CF88E0B6
:10027000D5CF41E06091A40080E690E08BDF109242
:10028000A3001092A4001092A200811110C08091CE
:10029000A100853041F0863021F0813031F481E0D9
:1002A000089582E0089583E0089584E0089580E051
:1002B0000895CF93DF93C82F862FD42F0EDF8D2F75
:1002C000D9DE8C2FD7DEDF91CF91D3CFCF93DF93C1
:1002D000D62FC42F02DF8D2FCDDE8C2FCBDEDF910A
:1002E000CF91C7CFCF93DF93C62FD42FF6DE8D2FBC
:1002F000C1DE8C2FBFDEDF91CF91BBCF1F93CF9399
:10030000DF93D62FC72F142FE8DE812FB3DE8D2F7A
:10031000B1DE8C2FAFDEDF91CF911F91AACF85B7D1
:10032000877E806185BF85B7806285BF85B7806223
:1003300085BF889585B78F7D85BF85B78F7D85BF44
:100340000895CF93DF93C62FD1E0D60F880F816039
:100350008093600041E06D2F80E690E01BDF91E02C
:100360009093A300811105C09093A400DF91CF91D9
:100370000895D093A4008C2FF9CF1F93CF93DF93D0
:10038000182FC8E8D0E08881A8DE812F73DE71DFE6
:1003900061E08881D6DFACDEDF91CF911F910895B7
:1003A000CF93DF9381E0E9DF682F6F79C8E8D0E071
:1003B00041E0888197DF40E060E18881DF91CF9163
:1003C00091CF1F93CF93DF93182FC8E8D0E0888197
:1003D00084DE812F4FDE4DDF62E08881B2DF88DE70
:1003E000C82F86DE20E0382FC9018C2BDF91CF91FA
:1003F0001F910895FF920F931F93CF93DF9380E097
:10040000BCDF682F6F7E40E0809188006BDF8091B9
:100410008B008823A1F16091890070918A00611599
:10042000710569F190E0B5D5BC0190E080E090D411
:1004300028E539E346E452E4F7D35ED44FE08091F7
:1004400088005CDF8091890090918A006AE070E00A
:10045000B1D520918B0030E0862F90E0B90199D57D
:10046000BC01990F880B990B75D426EF38E24CE349
:1004700052E4DAD341D445E18091880033DF8091A2
:100480008C0090918D000097B1F06091890070917F
:100490008A006115710579F07CD5BC0190E080E09F
:1004A00057D42CEE31E744E754E4BED325D441E1E0
:1004B0008091880023DF40E26AEA8091880012DFA1
:1004C0008AEA80938E0082E07CDFEC0141E2BC018D
:1004D0008091880013DFC0938F00D09390008DE04F
:1004E00070DF082FD92F43E2682F792F8091880081
:1004F00005DF00939100D09392008FE062DF182F08
:10050000D92F45E2682F792F80918800F7DE10936C
:100510009300D093940081E154DFD82FF92E47E265
:10052000682F792F80918800E9DED0939500F092B2
:100530009600C00FC655C10FCD0F49E26C2F8091B8
:100540008800D0DEC0939700DF91CF911F910F916B
:10055000FF900895CF93DF938DE033DFEC014ADF06
:100560004DE0BE0180918800C9DE68EC70E080E05B
:1005700090E0DF91CF91EACD0F931F93CF9388E165
:10058000FCDE843179F50EE810E0C0E28C2FF5DE58
:10059000F80191918F01891311C0CF5FC932B1F772
:1005A00081E0EBDE8871C1F481E20BDF8C0122DF98
:1005B00042E0B80180918800A1DE0AC0C0E24C2F61
:1005C00060E0809188008EDECF5FC932C1F7C2DF64
:1005D000CF911F910F91E4CE41E063E080918800BC
:1005E00081DEF5CFCF911F910F910895DF92EF92A9
:1005F000FF920F931F93CF93DF93D82F162FC42F03
:100600006CDD812F37DD35DE6C2F8D2F9ADE0FEFFD
:100610001FEF8C17E0F0DC2EDD0CDD0CDD0CF12C77
:10062000E12C10E000E0D0E088EFD80EEC16FD06DB
:1006300074F45EDD99270D2C02C0880F991F0A946F
:10064000E2F7082B192B8FEFE81AF80AEDCFC80153
:10065000DF91CF911F910F91FF90EF90DF90089560
:1006600041E061E880919800C1DF91E0813209F0BA
:1006700090E0892F0895F4DF80939C00882341F057
:100680004FE050E06EE88091980020DE80E0089511
:1006900081E00895CF93DF93E3DF80939C00C1E076
:1006A000D0E0882301F180919A00811120C0C0918F
:1006B000980041E060E88C2F99DF8860482F50E077
:1006C00060E88C2F03DE6AE070E080E090E03EDDC1
:1006D00042E067E88091980089DFEC01CCDF882355
:1006E00011F0C82FD0E0CE01DF91CF91089541E005
:1006F00060E8809198007ADF85FFF9CFE9CF86B373
:1007000083FB882780F990E0089590E0FC01E65D86
:10071000FF4F3491FC01EA5CFF4F2491FC01E05D46
:10072000FF4FE491EE23B9F0332329F03130A1F4E7
:100730008AB58F778ABDF0E0EE0FFF1FEC5DFF4FAB
:10074000A591B4918FB7611118C0F894EC912095E0
:100750002E232C938FBF0895323019F48AB58F7DE4
:10076000E9CF333021F480B78F7D80BFE4CF3430C0
:1007700011F78CB58F7D8CBDDECFF894EC912E2BCC
:10078000E8CFCF93DF9390E0FC01EA5CFF4F249128
:10079000805D9F4FFC0184918823C9F090E0880F11
:1007A000991FFC01E25EFF4FA591B491FC01EC5D45
:1007B000FF4FC591D49161110DC09FB7F8948C91F2
:1007C000209582238C938881282328839FBFDF91E3
:1007D000CF910895623051F49FB7F8943C91822FE5
:1007E000809583238C93E8812E2BEFCF8FB7F894DD
:1007F000EC912E2B2C938FBFEACF1F920F920FB646
:100800000F9211242F938F939F93EF93FF938091D7
:100810008100823009F45EC078F4882349F1813088
:1008200009F43EC0FF91EF919F918F912F910F900E
:100830000FBE0F901F901895843009F451C048F1F5
:10084000853081F784E0809381009FB180919D0085
:100850008F5F8F7020919E00281709F446C0809307
:100860009D00E0919D00F0E0E05AFF4F90830BC0A7
:100870008FB1882319F08FB1869571F4789B07C0EA
:1008800081E0809381001FB8B89A8EE721C084E090
:10089000F8CF8FB1882321F0B89888EA8DB917C0B6
:1008A00080919F009091A0009817B1F380919F00D4
:1008B0008F5F8F7080939F00E0919F00F0E0E05980
:1008C000FF4F80818FB982E080938100B89A80E7E2
:1008D0008EB9A8CF83E080938100B8981FB8D5CF98
:1008E00085E080938100B898F2CFB898CECF1F9260
:1008F0000F920FB60F9211248F9310928100B89827
:10090000B29B04C0B09BFCCF88EA01C088EF8DB9D0
:1009100080EF8EB98F910F900FBE0F901F9018959A
:100920001F920F920FB60F9211248F9381E0809344
:1009300087008F910F900FBE0F901F9018951F92F8
:100940000F920FB60F9211248F9381E08093800055
:100950008F910F900FBE0F901F90189583E08ABD66
:1009600082E083BF789480E48CBD1FEF1DBD84ECD2
:1009700080BF83E886B961E084E003DF60E081E066
:1009800000DF62E083E0FDDE60E084E0BEDE60E088
:1009900081E0BBDE1092A3001092A4001092A2008E
:1009A000C09AC29ABA9AB89A1FB98AE28DB980EFF2
:1009B0008EB962E370E080E090E0C8DB40E66EE173
:1009C00083E077DC40E269E182E273DC43E269E1E3
:1009D00080E06FDC45E269E182E26BDC44E369E1DF
:1009E00088E067DC46E369E184E363DC6AE070E0A9
:1009F00080E090E0ABDB83E1809398001092990057
:100A000010929A0010929B002BDE80939C0028DEAF
:100A100080939C00882349F04FE050E063E8809188
:100A2000980054DC86E9809399001ADE80939C003C
:100A3000882369F050E040E060E88091980046DC4F
:100A40006AE070E080E090E081DB10929A006AE05A
:100A500070E080E090E07ADB8FDD109285001092EC
:100A600084008CEA9DE09093830080938200F89448
:100A70008BB780628BBFAB9A85B7846885BF8B7F4D
:100A800085BFA89581B5886181BD81E281BD81B5B1
:100A9000806481BD789480918700882341F0109212
:100AA000870080918600109286008F3F49F427DEF0
:100AB000019709F05CC060E084E027DE30DCEBCF1A
:100AC00081E05BDC90E023E0959587952A95E1F73E
:100AD000837009F44AC050DD82E073DC8C0164E667
:100AE00070E080E090E032DBB80190E080E030D14F
:100AF00020E030E040E05BE3E1D120E030E040EA9C
:100B000051E48ED018169CF203E010E061E084E01E
:100B1000FCDD61E081E035DE64EF71E080E090E0D3
:100B200015DB60E084E0F1DD60E081E02ADE64EF67
:100B300071E080E090E00ADB0150110939F704E030
:100B400010E061E081E01DDE64EF71E080E090E0A4
:100B5000FDDA60E081E015DE64EF71E080E090E0B6
:100B6000F5DA0150110969F7A2CF1ADCB5CFC7DD5C
:100B7000892B09F090CF89E1B0DA8AEA7BDA79DB58
:100B800062E089E1DEDBB4DA182FB2DAD82F80E038
:100B9000C82FBE01612B86E0759567958A95E1F7B0
:100BA000072E000C880B990BD5D023E93CE84CE1CB
:100BB0005DE384D120E030E0A9017CD118160CF46B
:100BC0007DCF68DD2091840030918500821B930BDE
:100BD000209182003091830061E02817390708F0E6
:100BE00060E084E092DD47DD68EC70E080E090E05A
:100BF000ADDA51CFEEE8F0E089E0DF011D928A9591
:100C0000E9F7E8E8F0E080E780838EE690E0928301
:100C1000818382E3838384E690E0958384830895CF
:100C2000D4D008F481E008950CD00AC102D140F07C
:100C3000F9D030F021F45F3F19F0EBC0511134C10D
:100C4000EEC00FD198F39923C9F35523B1F3951B47
:100C5000550BBB27AA2762177307840738F09F5FDD
:100C60005F4F220F331F441FAA1FA9F333D00E2E4C
:100C70003AF0E0E830D091505040E695001CCAF7B9
:100C800029D0FE2F27D0660F771F881FBB1F26177E
:100C900037074807AB07B0E809F0BB0B802DBF0151
:100CA000FF2793585F4F2AF09E3F510568F0B1C06F
:100CB000FBC05F3FECF3983EDCF386957795679534
:100CC000B795F7959F5FC9F7880F911D9695879502
:100CD00097F90895E1E0660F771F881FBB1F621721
:100CE00073078407BA0720F0621B730B840BBA0BDF
:100CF000EE1F88F7E0950895BCD088F09F5790F0DC
:100D0000B92F9927B751A0F0D1F0660F771F881F30
:100D1000991F1AF0BA95C9F712C0B13081F0C3D04B
:100D2000B1E00895C0C0672F782F8827B85F39F0E9
:100D3000B93FCCF3869577956795B395D9F73EF48F
:100D400090958095709561957F4F8F4F9F4F089537
:100D5000E89409C097FB3EF4909580957095619555
:100D60007F4F8F4F9F4F9923A9F0F92F96E9BB270B
:100D70009395F695879577956795B795F111F8CF87
:100D8000FAF4BB0F11F460FF1BC06F5F7F4F8F4FF2
:100D90009F4F16C0882311F096E911C0772321F0E8
:100DA0009EE8872F762F05C0662371F096E8862F80
:100DB00070E060E02AF09A95660F771F881FDAF7D7
:100DC000880F9695879597F90895990F0008550F04
:100DD000AA0BE0E8FEEF16161706E807F907C0F0C1
:100DE00012161306E407F50798F0621B730B840BC9
:100DF000950B39F40A2661F0232B242B252B21F4A3
:100E000008950A2609F4A140A6958FEF811D811D42
:100E1000089597F99F6780E870E060E008959FEF7C
:100E200080EC089500240A94161617061806090681
:100E3000089500240A941216130614060506089550
:100E4000092E0394000C11F4882352F0BB0F40F4D8
:100E5000BF2B11F460FF04C06F5F7F4F8F4F9F4F18
:100E6000089557FD9058440F551F59F05F3F71F09A
:100E70004795880F97FB991F61F09F3F79F0879501
:100E80000895121613061406551FF2CF4695F1DF8A
:100E900008C0161617061806991FF1CF869571051A
:100EA000610508940895E894BB2766277727CB014E
:100EB00097F908958ADF08F48FEF08950AD0C0CF1C
:100EC000B1DF28F0B6DF18F0952309F0A2CFA7CF45
:100ED000EBCFC7DFA8F39923D9F35523C9F3950FB7
:100EE00050E0551FAA27EE27FF27BB2700240894B0
:100EF000679520F4E20FF31FB41F0A1E220F331F61
:100F0000441FAA1F6695A9F7779530F4F30FB41F15
:100F10000A1E121E08F46395330F441FAA1F221FD6
:100F2000769599F7879520F4B40F0A1E121E631F59
:100F3000440FAA1F221F331F8695A9F7862F712DF4
:100F4000602D11249F5750408AF0E1F088234AF029
:100F5000EE0FFF1FBB1F661F771F881F9150504069
:100F6000A9F79E3F510570F054CF9ECF5F3FECF341
:100F7000983EDCF3869577956795B795F795E79555
:100F80009F5FC1F7FE2B880F911D9695879597F966
:100F900008950024552704C0080E591F880F991F73
:100FA000009729F076956795B8F37105B9F7802D0C
:100FB000952F0895AA1BBB1B51E107C0AA1FBB1F99
:100FC000A617B70710F0A61BB70B881F991F5A95D5
:100FD000A9F780959095BC01CD010895EE0FFF1FF4
:0C0FE0000590F491E02D0994F894FFCFE7
:00000001FF
