:100000000EC01DC0A7C21BC01AC019C018C017C09F
:1000100016C015C014C013C012C083C208C2112478
:100020001FBECFE5D2E0DEBFCDBF20E0A0E6B0E04E
:1000300001C01D92A339B207E1F79BD2A2C4E0CF61
:10004000909190009923A1F090919200903240F508
:1000500090919100E92FF0E0E05AFF4F808381E01A
:10006000890F809391008093920081E090E0089541
:1000700020918E0090918D002F5F921B9F7081F0D8
:1000800090918E009F5F9F7020918D009217E1F3F9
:10009000E92FF0E0E059FF4F808390938E00E5CF89
:1000A00090E080E0089591E090939000880F809315
:1000B0006000909391009093920008958091920037
:1000C000882339F02091910082131CC08FEF9FEF9D
:1000D000089590918C0080918B00891B8F70B1F3F3
:1000E00090918C0080918B009817E1F3E0918C0047
:1000F000EF5FEF70E0938C00F0E0E05AFF4F8081FB
:1001000090E00895E22FF0E0E05AFF4F808190E008
:100110002F5F20939100089524EF30E06150710922
:100120008109910908F40895F9013197F1F7F6CFA3
:100130008EB935E08BE224E0932F9A95F1F78DB9D3
:10014000B29BFECF922F9A95F1F78DB9769BF4CFA3
:1001500085E08A95F1F78FB19FEF9FB9B89A08951E
:10016000FF920F931F93CF93DF93062F142F21E05D
:1001700020938F00FC01208120FD03C023E0209309
:100180008F00C29AB29BFECF25E02A95F1F7C09866
:1001900024E02A95F1F7C298C09A77990BC087E0BE
:1001A00080938F0010E0812FDF91CF911F910F91ED
:1001B000FF900895EC01FF24FA9480918F008370E2
:1001C00019F1C29888818FB980EFB2DFB8988EEFAD
:1001D000AFDF80FF0CC080918F00182F117080FF5F
:1001E00002C086E0DDCF85E080938F00DCCF809178
:1001F0008F008E7F80938F00015021960111DDCFFB
:1002000011110EC011E0CFCFB89880EF91DF888335
:10021000013021F4FFB88EEF8BDFEECF1FB8FBCF9C
:10022000C098C29AB29BFECF84E08A95F1F7C09A3B
:1002300085E08A95F1F77599E5CF88E0D5CF41E063
:100240006091920080E690E08BDF10929100109216
:10025000920010929000811110C080918F00853023
:1002600041F0863021F0813031F481E0089582E060
:10027000089583E0089584E0089580E00895CF9381
:10028000DF93D62FC42F0FDF8D2FDADE8C2FD8DE31
:10029000DF91CF91D4CFCF93DF93C82F862FD42F68
:1002A00002DF8D2FCDDE8C2FCBDEDF91CF91C7CF3C
:1002B00085B7877E806185BF85B7806285BF85B73A
:1002C000806285BF889585B78F7D85BF85B78F7D17
:1002D00085BF08959CB59F7D9CBD811105C08FB7DA
:1002E000F894C4988FBF08958FB7F894C49AFACF42
:1002F00086B383FB882780F990E00895DF92EF9220
:10030000FF920F931F93CF93DF93C82F162FD42FF5
:10031000CADE812F95DE93DF11E01D0FCC0FC16087
:10032000C093600041E0612F80E690E019DF91E02A
:100330009093910081110DC0909392000FEF1FEFE9
:10034000C801DF91CF911F910F91FF90EF90DF9047
:10035000089510939200DD2EDD0CDD0CDD0CF12CE8
:10036000E12C10E000E0CD2FD0E088EFD80EEC16A5
:10037000FD0634F7A3DE99270D2C02C0880F991FC4
:100380000A94E2F7082B192B8FEFE81AF80AEDCF41
:1003900041E061E880918600B1DF91E0813209F0AF
:1003A00090E0892F0895F4DF80938A00882341F03C
:1003B0004FE050E06EE88091860061DF80E00895B4
:1003C00081E00895CF93DF93E3DF80938A00C1E05B
:1003D000D0E0882301F180918800811120C0C09174
:1003E000860041E060E88C2F89DF8860482F50E06C
:1003F00060E88C2F44DF6AE070E080E090E08CDE03
:1004000042E067E88091860079DFEC01CCDF882349
:1004100011F0C82FD0E0CE01DF91CF91089541E0D7
:1004200060E8809186006ADF85FFF9CFE9CF1F92EF
:100430000F920FB60F9211242F938F939F93EF93E8
:10044000FF9380918100823009F45EC078F48823A4
:1004500049F1813009F43EC0FF91EF919F918F9156
:100460002F910F900FBE0F901F901895843009F4B4
:1004700051C048F1853081F784E0809381009FB1BD
:1004800080918B008F5F8F7020918C00281709F46A
:1004900046C080938B00E0918B00F0E0E05AFF4F64
:1004A00090830BC08FB1882319F08FB1869571F4BA
:1004B000789B07C081E0809381001FB8B89A8EE7CF
:1004C00021C084E0F8CF8FB1882321F0B89888EA62
:1004D0008DB917C080918D0090918E009817B1F35F
:1004E00080918D008F5F8F7080938D00E0918D00E3
:1004F000F0E0E059FF4F80818FB982E08093810066
:10050000B89A80E78EB9A8CF83E080938100B8982D
:100510001FB8D5CF85E080938100B898F2CFB89806
:10052000CECF1F920F920FB60F9211248F9310927D
:100530008100B898B29B04C0B09BFCCF88EA01C090
:1005400088EF8DB980EF8EB98F910F900FBE0F900D
:100550001F9018951F920F920FB60F9211248F9330
:1005600081E0809380008F910F900FBE0F901F90BD
:10057000189583E08ABD82E083BF789480E48CBDC7
:100580001FEF1DBD84EC80BF83E886B98FB7F89458
:10059000BC9A8FBF8FB7F894BB98C39A8FBF80E087
:1005A00099DE109291001092920010929000C09AE1
:1005B000C29ABA9AB89A1FB98AE28DB980EF8EB9F9
:1005C00062E370E080E090E0A7DD40E66EE183E06A
:1005D00062DE40E269E182E25EDE43E269E180E000
:1005E0005ADE45E269E182E256DE44E369E188E0F1
:1005F00052DE46E369E18DE24EDE6AE070E080E0C3
:1006000090E08ADD83E1809386001092870010924B
:10061000880010928900BCDE80938A00B9DE809346
:100620008A00882349F04FE050E063E8809186001B
:1006300026DE86E980938700ABDE80938A008823DC
:1006400069F050E040E060E88091860018DE6AE0E2
:1006500070E080E090E060DD109288006AE070E079
:1006600080E090E059DD109285001092840080EACD
:100670009FE09093830080938200F8948BB7806210
:100680008BBFAB9A85B7846885BF8B7F85BF789415
:1006900013E32EDE019721F480E01CDE09DEF9CFA2
:1006A00027DE892BB1F789E1FEDC8AEAC9DCC7DDE8
:1006B0001093600041E063E080E690E051DD91E05E
:1006C00090939100811136C090939200F7DC082F2F
:1006D000F5DCD82F80E0C82FBE01602B86E0759531
:1006E00067958A95E1F7072E000C880B990B2ED0A1
:1006F00023E93CE84CE15DE388D020E030E0A9014B
:100700001FD087FDCBCF5EDE209184003091850025
:10071000821B930B209182003091830028173907A8
:1007200068F481E0D7DD3FDE68EC70E080E090E0C7
:10073000F3DCAFCF83E080939200C8CF80E0F2CFAC
:1007400040D008F481E00895E89409C097FB3EF496
:1007500090958095709561957F4F8F4F9F4F99230E
:10076000A9F0F92F96E9BB279395F695879577958C
:100770006795B795F111F8CFFAF4BB0F11F460FF4C
:100780001BC06F5F7F4F8F4F9F4F16C0882311F0A4
:1007900096E911C0772321F09EE8872F762F05C0B8
:1007A000662371F096E8862F70E060E02AF09A9553
:1007B000660F771F881FDAF7880F9695879597F948
:1007C0000895990F0008550FAA0BE0E8FEEF1616E2
:1007D0001706E807F907C0F012161306E407F50735
:1007E00098F0621B730B840B950B39F40A2661F0A9
:1007F000232B242B252B21F408950A2609F4A1404C
:10080000A6958FEF811D811D08950AD080C071D0FB
:1008100028F076D018F0952309F062C067C0ABC00D
:1008200087D0A8F39923D9F35523C9F3950F50E046
:10083000551FAA27EE27FF27BB270024089467959A
:1008400020F4E20FF31FB41F0A1E220F331F441FB0
:10085000AA1F6695A9F7779530F4F30FB41F0A1E07
:10086000121E08F46395330F441FAA1F221F7695AA
:1008700099F7879520F4B40F0A1E121E631F440FC8
:10088000AA1F221F331F8695A9F7862F712D602D71
:1008900011249F5750408AF0E1F088234AF0EE0F70
:1008A000FF1FBB1F661F771F881F91505040A9F77D
:1008B0009E3F510570F014C05EC05F3FECF3983E60
:1008C000DCF3869577956795B795F795E7959F5FE4
:1008D000C1F7FE2B880F911D9695879597F908957E
:1008E00097F99F6780E870E060E008959FEF80ECE3
:1008F000089500240A941616170618060906089586
:1009000000240A9412161306140605060895092EEB
:100910000394000C11F4882352F0BB0F40F4BF2B5A
:1009200011F460FF04C06F5F7F4F8F4F9F4F08959A
:1009300057FD9058440F551F59F05F3F71F0479590
:10094000880F97FB991F61F09F3F79F08795089575
:10095000121613061406551FF2CF4695F1DF08C094
:10096000161617061806991FF1CF869571056105B1
:1009700008940895E894BB2766277727CB0197F959
:060980000895F894FFCF7A
:00000001FF
